:020000040800F2
:10000000E0060020490100080D210008671F0008D4
:10001000092100087D060008852500080000000071
:100020000000000000000000000000003D2100086A
:100030008106000800000000112100083F2100088F
:100040006301000863010008630100086301000800
:1000500063010008630100086301000863010008F0
:1000600063010008630100086301000863010008E0
:1000700063010008630100086301000863010008D0
:1000800063010008630100086301000863010008C0
:1000900063010008630100086301000863010008B0
:1000A00063010008630100086301000863010008A0
:1000B0006301000863010008630100086301000890
:1000C0006301000863010008630100086301000880
:1000D000630100087525000863010008630100083A
:1000E0006301000863010008630100086301000860
:1000F0006301000863010008630100086301000850
:10010000630100086301000863010008630100083F
:10011000630100086301000863010008630100082F
:10012000630100086301000863010008630100081F
:10013000DFF810D000F0C4F800480047F92A0008A2
:10014000AFF30080E00600200648804706480047DD
:10015000FEE7FEE7FEE7FEE7FEE7FEE7FEE7FEE777
:10016000FEE7FEE7AD21000831010008202A04DB8C
:10017000203A21FA02F00021704721FA02F3D04020
:10018000C2F120029140084319467047D2B201E003
:1001900000F8012B491EFBD270470022F6E710B58C
:1001A00013460A4604461946FFF7F0FF204610BDE5
:1001B00030B505462A460B4612F8010B13F8014BE1
:1001C00008B1A042F8D01CB1002802D06D1CF1E7A4
:1001D000284630BD70B5064602F040FA0468054670
:1001E0000A220021304600F033F82C6070BD2DE962
:1001F000F05F0546002092469B46884606468146AB
:1002000040241BE02846414647462246FFF7AEFF02
:1002100053465A46C01A914110D3114618462246F9
:1002200000F060F82D1A67EB01084F4622460120C6
:10023000002100F057F817EB00094E41201EA4F1F1
:100240000104DFDC484631462A464346BDE8F09FBC
:100250002DE9F04791460F4680460446002614F8E3
:10026000015B2DB100F04EF80068405DC007F6D18B
:100270002B2D02D02D2D18D0641E4A46394620461B
:1002800000F044F827B13968A14201D1C7F80080D5
:1002900071054FF002040BD54042002803DD02F047
:1002A000DDF90460A007BDE8F08746F48066E4E766
:1002B0000028F8DA02F0D2F904606FF00040F2E7AB
:1002C000064C074D06E0E06840F0010394E80700A3
:1002D00098471034AC42F6D3FFF72EFFDC2C000811
:1002E000FC2C0008202A04DB203A00FA02F100204E
:1002F00070479140C2F1200320FA03F31943904064
:100300007047000000487047D82C00082DE9F05FC6
:1003100082460078002715468B460AF10104B9464B
:10032000302801D09DB113E014F8010B0127782883
:1003300003D0582801D045B10AE00DB1102D07D1E6
:100340000027102514F8010B02E0082500E00A251B
:100350000026B0460EE005FB080005FB06F101276C
:1003600001EB10461FFA80F8B6F5803F00D3B9467E
:1003700014F8010B294600F018F80028EBDABBF15D
:10038000000F05D00FB1641E00E05446CBF80040CA
:10039000B9F1000F06D002F061F902210160C81E18
:1003A000BDE8F09F48EA0640FAE73A2800D2303824
:1003B00020F02002412A01D3A2F13700884201D364
:1003C0004FF0FF307047000010B505A002F0DCF8D8
:1003D00008A002F0D9F800200B49087010BD0000F9
:1003E000426F6F746C6F6164657220496E69740A44
:1003F0000000000073746172743A6279746573204E
:1004000073746172740A00002800002010B50D4852
:1004100000880D49096888420BD00CA002F0B4F89E
:1004200009480268074801880CA002F0ADF80120D5
:1004300010BD17A002F0A8F8052019490870002087
:10044000F6E70000100000202400002064617461C1
:10045000206C656E206572726F720A0062696E2090
:10046000646174612072656365697665206C656E90
:10047000206572726F723A2025642C7374617274F5
:1004800020636865636B206C656E3A2025640A0002
:1004900064617461206C656E206F6B0A000000005F
:1004A0002800002030B585B005460C4600F070FBF2
:1004B00000200190012002900290039504940020F6
:1004C0000090694601A800F0A3FA00F0FFFA05B019
:1004D00030BD000010B50748006850B100F016FDAF
:1004E00004490968401AB0F5FA6F02D9042002499C
:1004F000087010BD1C0000202800002038B5002224
:1005000002211A4800F0FCFC4FF0FF30184B40224B
:1005100018490090184801F043F9012202211348BC
:1005200000F0EEFC1248008800281EDD13A11148DF
:10053000FFF73EFE0446A4B1A01DFFF74BFE114994
:1005400008600846006840B1084601680EA002F045
:100550001BF801200F49087006E00FA002F014F804
:1005600002E011A002F010F800BF38BD0008014001
:1005700020000020A002002034000020737461726B
:10058000743A00002400002062797465733A2025D3
:10059000640A000028000020627974657320657287
:1005A000726F720A000000007374617274206572C9
:1005B000726F720A0000000010B51C48007806280F
:1005C00030D2DFE800F00308182F1B22FFF7FCFEF3
:1005D000FFF794FF27E00A211548FFF763FF15A0F6
:1005E00001F0D2FF18A001F0CFFF02200F490870E0
:1005F00001F016FD17E0FFF76DFF14E0FFF706FFAF
:10060000012801D102F00AF80DE001F0AFFC18B9A1
:1006100011A001F0B9FF04E014A001F0B5FF01F052
:10062000FDFF00E000BF00BF10BD0000280000205B
:100630000040000865726173652070616765206421
:100640006F6E650A00000000726561647920726552
:100650006320646174610A006A756D702061707056
:1006600020737563636573730A0000006A756D70AB
:1006700020617070206661696C0A000000BFFEE7AF
:10068000704772B600BFFEE70021074AD1610749F3
:10069000096941F00401054A11611146096941F0F7
:1006A00040011161704700008000002000200240DE
:1006B0000021074AD1610749096941F00201054A51
:1006C000116111464861096941F0400111617047AB
:1006D00080000020002002400022054BDA61054A1C
:1006E000126942F00102034B1A6101807047000059
:1006F000800000200020024000201E49C96801F04F
:10070000100139B11C49C96941F002011A4AD1618D
:1007100040F010001749C96801F0040139B11649C9
:10072000C96941F00101144AD16140F00400114946
:10073000C96901F0010169B10F49C96941F00401BA
:100740000D4AD16100BF0B49C96921F00101094A75
:10075000D16100BF00BF40F20111884206D10549B6
:10076000C96921F00101034AD16101E00149C86072
:1007700000BF7047002002408000002070B5044692
:1007800000F0C4FB054609E0601C38B124B100F05C
:10079000BDFB401BA04201D9032070BD1248C068B8
:1007A00000F001000028EFD10F48C06800F02000E1
:1007B00020B100BF20200C49C86000BF0A48C068B3
:1007C00000F0100048B90848C06900F0010020B9E5
:1007D0000548C06800F0040018B1FFF78DFF012044
:1007E000DBE70020D9E7000000200240014600229C
:1007F00091F82100022808D00420886300BF00205F
:1008000081F8200000BF012070470868006820F0D0
:100810000E000B6818600868006820F001000B6883
:10082000186091F8403001209840CB6B586001204F
:1008300081F8210000BF002081F8200000BF104691
:10084000E2E7000070B50446002594F82100022874
:1008500003D00420A0630125C1E02068006820F0D7
:100860000E00216808602068006820F001002168FF
:1008700008605C492068884252D95A497839206812
:10088000884201D1012047E05649643920688842F6
:1008900001D1102040E0534950392068884201D1ED
:1008A000801539E04F493C392068884201D18014D5
:1008B00032E04C4928392068884202D14FF4803018
:1008C0002AE0484914392068884202D14FF4801048
:1008D00022E044492068884201D140041CE042499A
:1008E0002068884201D1012016E03F491431206878
:1008F000884201D110200FE03B492831206888420E
:1009000001D1801508E038493C312068884201D186
:10091000801401E04FF480303349091F086051E032
:10092000304978392068884201D1012047E02D49BB
:1009300064392068884201D1102040E029495039AB
:100940002068884201D1801539E026493C39206869
:10095000884201D1801432E0224928392068884237
:1009600002D14FF480302AE01E49143920688842B1
:1009700002D14FF4801022E01A492068884201D148
:1009800040041CE018492068884201D1012016E08B
:10099000154914312068884201D110200FE0124916
:1009A00028312068884201D1801508E00E493C3189
:1009B0002068884201D1801401E04FF48030094959
:1009C00080394860012084F8210000BF002084F8AD
:1009D000200000BF606B10B12046616B884728463D
:1009E00070BD0000800002400804024010B54FF0C6
:1009F000FF300649086100200861401EC8600020E1
:100A0000C86000F0CFFA002010BD000000100240C6
:100A10002DE9F04104460E460127002500BF264877
:100A2000007E012802D10220BDE8F0810120224988
:100A3000087600BF2068022813D14CF25030FFF72F
:100A40009DFE90BB0120FFF71FFE4CF25030FFF7D8
:100A500095FE07461948006920F00400174908610F
:100A600023E04CF25030FFF789FEF0B94FF0FF3031
:100A70003060A56812E02846FFF71AFE4CF25030AD
:100A8000FFF77CFE07460D48006920F002000B4985
:100A900008610FB1356007E005F50065D4E9021083
:100AA00001EBC020A842E6D800BF00BF00200249E9
:100AB000087600BF3846B7E78000002000200240DB
:100AC0000148C069704700008000002003480069A9
:100AD00040F080000149086100207047002002407A
:100AE0002DE9FE4F05468B46174698460126002401
:100AF0000020029000BF2448007E012802D102207D
:100B0000BDE8FE8F01202049087600BF4CF250302E
:100B1000FFF734FE064686BB012D02D1012002906C
:100B200006E0022D02D10220029001E00420029092
:100B300000241EE02201B946C24648465146FFF74E
:100B400015FB80B20190022000FB04B000900199D7
:100B5000FFF7C2FD4CF25030FFF710FE06460B487F
:100B6000006920F001000949086106B104E0601C39
:100B7000C4B202988442DDDB00BF00BF00200249FE
:100B8000087600BF3046BBE780000020002002400E
:100B900000200849096901F0800151B10649054A60
:100BA0005160064951601146096901F0800101B1A7
:100BB000012070470020024023016745AB89EFCD3B
:100BC0002DE9F847024600239C467BE14FF00108DF
:100BD00008FA03F4D1F8008008EA0400A0427DD1AD
:100BE000DFF8F4A2D1F80480A8EB0A09D0453AD086
:100BF00014DCB8F1030F50D009DCB8F1000F31D08C
:100C0000B8F1010F1CD0B8F1020F49D120E0B8F1C2
:100C1000110F18D0B8F1120F42D11EE0B9F5881F9C
:100C200025D006DCB9F5803F20D0B9F5801F37D13B
:100C30001AE0B9F5001F18D0B9F5041F30D117E03C
:100C4000D1F80CC02DE0D1F80C8008F1040C28E09C
:100C5000D1F80C8008F1080C23E0D1F80C8008F1E1
:100C60000C0C1EE000BF00BF00BF00BF00BF00BFF4
:100C7000D1F80880B8F1000F02D14FF0040C0BE05E
:100C8000D1F80880B8F1010F03D14FF0080C1461BE
:100C900002E04FF0080C546103E04FF0000C00E05C
:100CA00000BF00BFFF2801D8904601E002F1040810
:100CB0004646FF2802D84FEA830803E0A3F108085C
:100CC0004FEA88084746D6F800804FF00F0909FA26
:100CD00007F928EA09080CFA07F900E07AE048EA7F
:100CE0000908C6F80080D1F8048008F08058B8F1EF
:100CF000805F6FD100BFDFF8E481D8F8188048F03A
:100D00000108DFF8D891C9F81880C846D8F81880CB
:100D100008F00108CDF8008000BF00BF4FEAB938E5
:100D20004FEA930958F829504FEA83784FEA187927
:100D30004FF00F0808FA09F825EA0805DFF8A08146
:100D4000424502D14FF0000824E0DFF89881424587
:100D500002D14FF001081DE0DFF88C81424502D13D
:100D60004FF0020816E0DFF88481424502D14FF0CF
:100D700003080FE0DFF87881424502D14FF0040804
:100D800008E0DFF87081424502D14FF0050801E02C
:100D90004FF006084FEA83794FEA197908FA09F803
:100DA00048EA0505DFF850814FEA930948F82950D1
:100DB000D1F8048008F48018B8F5801F0BD1DFF853
:100DC0003C81D8F8008048EA0008DFF83091C9F883
:100DD00000800AE075E0DFF82481D8F8008028EA76
:100DE0000008DFF81891C9F80080D1F8048008F4F1
:100DF0000018B8F5001F0ED1DFF8008108F10408D3
:100E0000D8F8008048EA0008DFF8F09009F10409FA
:100E1000C9F800800DE0DFF8E48008F10408D8F894
:100E2000008028EA0008DFF8D49009F10409C9F825
:100E30000080D1F8048008F40038B8F5003F0ED1E6
:100E4000DFF8B880A8F10408D8F8008048EA000864
:100E5000DFF8A890A9F10409C9F800800DE0DFF8D7
:100E60009C80A8F10408D8F8008028EA0008DFF880
:100E70008C90A9F10409C9F80080D1F8048008F425
:100E80008038B8F5803F0ED1DFF87080A8F10808EF
:100E9000D8F8008048EA0008DFF86090A9F1080956
:100EA000C9F800800DE0DFF85480A8F10808D8F8F0
:100EB000008028EA0008DFF84490A9F10809C9F881
:100EC00000805B1CD1F8008028FA03F8B8F1000F0D
:100ED0007FF47CAEBDE8F8870000111000100240DE
:100EE00000080140000C01400010014000140140C6
:100EF00000180140001C01400800014008040140A6
:100F00000AB1016101E00B04036170470148006808
:100F1000704700000000002003480068034909787A
:100F200008440149086070470000002008000020C4
:100F300010B50848006840F010000649086003201A
:100F400000F0AAF80F2000F007F800F02DF80020BC
:100F500010BD00000020024070B504460E48007825
:100F60004FF47A71B1FBF0F00C490968B1FBF0F570
:100F7000284600F0FBFB08B1012070BD102C07D201
:100F800000222146501E00F049F80548046001E0A7
:100F90000120F2E70020F0E7080000200C0000200C
:100FA000040000207047000008B500BF11488069A8
:100FB00040F001000F4988610846806900F0010097
:100FC000009000BF00BF00BF0846C06940F08050DD
:100FD000C8610846C06900F08050009000BF00BFA3
:100FE00000BF0549486820F0E06040F000704860AC
:100FF00000BF08BD00100240000001400146084645
:10100000002809DB00F01F0301229A4043099B00DE
:1010100003F1E023C3F8002100BF70472DE9F05F22
:1010200080460D461646002701F0DCFA0746394691
:101030002A46334601F00700C0F1070ABAF1040F4F
:1010400002D94FF0040A01E0C0F1070AD14600F1CD
:10105000040ABAF1070F02D24FF0000A01E0A0F132
:10106000030AD4464FF0010A0AFA09FAAAF1010A62
:101070000AEA020A0AFA0CFA4FF0010B0BFA0CFB0F
:10108000ABF1010B0BEA030B4AEA0B042146404685
:1010900001F0B0FABDE8F09F00BF00F00702064B78
:1010A00019684FF6FF031940044B0B4343EA022132
:1010B000014B196000BF70470CED00E00000FA051D
:1010C00070B504460D460CB9012070BD5A48006841
:1010D00000F00700A8420ED25748006820F0070031
:1010E0002843554908600846006800F00700A842F8
:1010F00001D00120E9E7207800F0020002281DD18C
:10110000207800F00400042805D14C48406840F4E1
:10111000E0604A494860207800F00800082805D1BE
:101120004648406840F4605044494860434840683D
:1011300020F0F000A168084340494860207800F0A2
:10114000010078B36068012806D13C48006800F4CB
:10115000003090B90120B8E76068022806D137480E
:10116000006800F0007040B90120AEE73348006825
:1011700000F0020008B90120A7E73048406820F0DD
:101180000300616808432D494860FFF7BFFE06462B
:1011900009E0FFF7BBFE801B41F28831884202D98B
:1011A000032092E707E02548406800F00C006168E2
:1011B000B0EB810FEDD12048006800F00700A84295
:1011C0000ED91D48006820F0070028431A4908601E
:1011D0000846006800F00700A84201D0012074E72B
:1011E000207800F00400042807D11448406820F457
:1011F000E060E168084311494860207800F0080089
:10120000082808D10D48406820F46050216940EA60
:10121000C1000A49486000F03FF808494968C1F335
:101220000311074A515CC840064908600648006837
:10123000FFF792FE002048E7002002400010024025
:101240003E2C00080C00002004000020014800682B
:10125000704700000C00002000B5FFF7F7FF0449BD
:101260004968C1F30221034A515CC84000BD000037
:10127000001002404E2C000800B5FFF7E7FF0449BC
:101280004968C1F3C221034A515CC84000BD000057
:10129000001002404E2C000870B5002100220024EE
:1012A00000230020134D696801F00C05F5B1042DF1
:1012B00002D0082D19D101E00F4819E00F4DC1F3FC
:1012C0008346AB5D01F4803555B10A4D6D68C5F3B9
:1012D00040450B4E725D084D5D43B5FBF2F402E0F4
:1012E000084D03FB05F4204602E000BF024800BFA2
:1012F00000BF70BD0010024000127A002C2C0008C4
:101300003C2C000800093D00F8B504460CB901204A
:10131000F8BD207800F00100002878D0F848406837
:1013200000F00C0004280CD0F548406800F00C00D8
:10133000082811D1F248406800F48030B0F5803FB1
:101340000AD1EF48006800F4003000285FD06068E0
:1013500000285CD10120DBE700BF6068B0F5803F6A
:1013600006D1E748006840F48030E549086028E08D
:10137000606858B9E248006820F48030E0490860AD
:101380000846006820F4802008601AE06068B0F524
:10139000A02F0BD1DA48006840F48020D8490860BB
:1013A0000846006840F4803008600AE0D4480068CD
:1013B00020F48030D24908600846006820F480207C
:1013C000086000BF606888B1FFF7A0FD054606E031
:1013D000FFF79CFD401B642801D9032098E7C8480B
:1013E000006800F400300028F2D010E0FFF78EFD16
:1013F000054606E0FFF78AFD401B642801D903205B
:1014000086E7BF48006800F400300028F2D1207859
:1014100000F00200022857D1B948406800F00C00E3
:1014200050B1B748406800F00C00082818D1B44803
:10143000406800F4803098B9B148006800F00200BC
:1014400020B12069012801D0012061E7AC48006883
:1014500020F0F800616940EAC100A949086033E062
:101460002069E8B10120A7490860FFF74FFD054654
:1014700006E0FFF74BFD401B022801D9032047E798
:101480009F48006800F002000028F2D09C480068E5
:1014900020F0F800616940EAC1009949086013E052
:1014A000002098490860FFF731FD054606E0FFF788
:1014B0002DFD401B022801D9032029E79048006830
:1014C00000F002000028F2D1207800F0080008287F
:1014D0002DD1A069B8B101208B490860FFF716FD36
:1014E000054606E0FFF712FD401B022801D9032044
:1014F0000EE78348406A00F002000028F2D0012085
:1015000000F008FE13E000207F490860FFF7FEFCB2
:10151000054606E0FFF7FAFC401B022801D903202C
:10152000F6E67748406A00F002000028F2D1207801
:1015300000F00400042873D100277148C06900F04E
:10154000805070B900BF6E48C06940F080506C494F
:10155000C8610846C06900F08050009000BF00BF1D
:1015600001276A48006800F48070B0B967480068D5
:1015700040F4807065490860FFF7C8FC054606E046
:10158000FFF7C4FC401B642801D90320C0E65F4874
:10159000006800F480700028F2D000BFE0680128E5
:1015A00006D15748006A40F001005549086227E01B
:1015B000E06858B95248006A20F0010050490862BA
:1015C0000846006A20F00400086219E0E068052877
:1015D0000BD14B48006A40F00400494908620846B4
:1015E000006A40F0010008620AE04548006A20F005
:1015F0000100434908620846006A20F004000862BE
:1016000000BFE068A0B1FFF781FC054609E0FFF7E5
:101610007DFC401B41F28831884202D9032077E6E5
:1016200022E03748006A00F002000028EFD012E004
:10163000FFF76CFC054608E0FFF768FC401B41F231
:101640008831884201D9032062E62D48006A00F003
:1016500002000028F0D1012F05D12948C06920F0EF
:1016600080502749C86100BFE069C8B3244840687A
:1016700000F00C00082860D0E069022848D1002062
:1016800020490866FFF742FC054606E0FFF73EFCEE
:10169000401B022801D903203AE61948006800F0EF
:1016A00000700028F2D1206AB0F5803F07D11448BD
:1016B000406820F40030A168084311494860D4E92B
:1016C000080108430E49496821F4741108430C4984
:1016D000486001200B490866FFF718FC054607E043
:1016E0003DE0FFF713FC401B022801D903200FE661
:1016F0000348006800F000700028F2D02FE00000DE
:10170000001002400000424280044242007000404B
:10171000002014490866FFF7F9FB054606E0FFF7CD
:10172000F5FB401B022801D90320F1E50E480068B3
:1017300000F000700028F2D111E0E069012800D12A
:10174000E6E50948466806F48031206A814204D102
:1017500006F47011606A814201D00120D8E50020B2
:10176000D6E50000000042420010024070B5044679
:101770002546681EB0F1807F01D301200FE0681E6E
:101780004FF0E02148610F214FF0FF3000F032FFB1
:1017900000204FF0E021886107200861002070BD23
:1017A0002DE9F84F04460F4690461D46DDF828A067
:1017B00094F84200202878D117B1B8F1000F02D177
:1017C0000120BDE8F88F00206064222084F84200E8
:1017D0000120206300206063FFF798FB8346A4F894
:1017E0002C80A4F82E80A068B0F5805F04D1206919
:1017F00010B90026B94602E03E464FF0000900202D
:10180000288053E02068006800F01000102813D1F1
:1018100000BF0020009020680068009020684068A9
:10182000009000BF00BF288830B1022060632020F4
:1018300084F842000020C4E72068006800F020001F
:10184000202821D146B920684068C0F30800A9F8D3
:10185000000009F1020911E0A068B0F5805F03D033
:10186000A06828B9206918B920684068307004E081
:101870002068406800F07F003070761C2888401C8B
:101880002880E08D401EE0850AF1010070B1FFF76D
:101890003DFBA0EB0B00504502D8BAF1000F05D17B
:1018A000202084F8420003208BE70BE0E08D002825
:1018B000A8D1A08DE18D401A2880202084F8420014
:1018C00000207EE702207CE7F8B504460E46174666
:1018D00094F8420020282ED106B10FB90120F8BD9E
:1018E00001202063002060633A463146204600F024
:1018F000ABFD0546EDB9206B012819D100BF0020D2
:10190000009020680068009020684068009000BF48
:1019100000BF00BF00BF21680C3151E8001F41F03B
:10192000100021680C3141E80002002AF3D100E0E8
:1019300001252846D3E70220D1E70000F0B585B0A5
:1019400005460C464F49286888427CD1FFF7DEFAED
:101950004D4908604D4804804D48008820444C495A
:101960000880FFF715F900260027002013E0494AF8
:101970001268494B1A44115CFF290BD00126454AD5
:1019800012681A440244434B1B880344C3F30A03FE
:10199000D71A02E0401CA042E9D300BF6EB100207C
:1019A0000190012002900290039704900020009083
:1019B000694601A8FFF72CF800BF3849097860187C
:1019C00000EBD0714910A0EB4101D1B93348007848
:1019D00001280BD101F09EF82E480168601C0844D4
:1019E0002C49086000202D49087026E001F0DAF843
:1019F00028480068204427490860002027490870CB
:101A00001BE026480078012807D101F083F821481F
:101A1000006820441F49086007E001F0C3F8601E19
:101A20001C49096808441B490860601E1C49085C81
:101A30001C490870012019490870FFF747F84FF456
:101A40000071174800E01AE0FEF7A7FB00BF002076
:101A500004901548006800680490134800684068C6
:101A6000049000BF00BF6FF010000F4909680860C4
:101A70004FF400720A490C48FFF726FF00BF05B07B
:101A8000F0BD0000003801401C00002012000020C2
:101A90001000002014000020004000081900002061
:101AA000A000002018000020340000207047000033
:101AB0002DE9F84F0446206805682068C66820684C
:101AC00047694FF00009CA4605F00F09B9F1000F48
:101AD0000AD105F0200038B106F0200020B12046E0
:101AE00000F0B5FBBDE8F88FB9F1000F7BD007F02F
:101AF000010018B906F49070002874D005F00100B8
:101B000030B106F4807018B1606C40F00100606480
:101B100005F0040030B107F0010018B1606C40F02E
:101B20000200606405F0020030B107F0010018B156
:101B3000606C40F00400606405F0080048B106F0F5
:101B4000200010B907F0010018B1606C40F00800E7
:101B50006064606C002845D005F0200028B106F0D4
:101B6000200010B1204600F072FB20684069C0F3ED
:101B7000801A606C00F0080010B9BAF1000F2CD088
:101B8000204600F01EFB2068406900F0400000B3D2
:101B900000BF00BF2168143151E8001F21F0400050
:101BA0002168143141E80002002AF3D100BFE06B44
:101BB00050B17748E16B4863E06BFEF743FE88B1B4
:101BC000E06B416B88470DE02046FFF76FFF09E0AF
:101BD00009E02046FFF76AFF04E02046FFF766FFB2
:101BE000002060647EE7206B012877D105F01000AB
:101BF000002873D006F010000028FAD000BF0020A3
:101C0000009020680068009020684068009000BF45
:101C100000BF2068406900F0400000285FD0E06B02
:101C2000006840681FFA80F8B8F1000F55D0A08D09
:101C3000404552DDA4F82E80E06B8069202843D017
:101C400000BF00BF21680C3151E8001F21F48070F3
:101C500021680C3141E80002002AF3D100BF00BF27
:101C600000BF2168143151E8001F21F001002168F4
:101C7000143141E80002002AF3D100BF00BF00BFC9
:101C80002168143151E8001F21F04000216814310F
:101C900041E80002002AF3D100BF202084F842006E
:101CA0000020206300BF00BF21680C3151E8001FF5
:101CB00021F0100021680C3141E80002002AF3D124
:101CC00000BFE06BFEF792FD02206063A08DE28D05
:101CD000801A81B22046FFF731FE03E742E0A08D73
:101CE000E18D401A1FFA80F8E08DD0B3B8F1000FF3
:101CF00037D000BF00BF21680C3151E8001F21F42C
:101D0000907021680C3141E80002002AF3D100BF35
:101D100000BF00BF2168143151E8001F21F001000D
:101D20002168143141E80002002AF3D100BF2020CD
:101D300084F842000020206300BF00BF21680C31FE
:101D400051E8001F21F0100021680C3141E8000229
:101D5000002AF3D100BF0220606341462046FFF70E
:101D6000EDFDBFE605F0800030B106F0800018B14F
:101D7000204600F089FBB5E605F0400030B106F0E2
:101D8000400018B1204600F052FAABE600BFA9E6C9
:101D9000AF21000810B504460CB9012010BDA069A0
:101DA00000B100E000BF94F8410028B9002084F899
:101DB0004000204600F02AF8242084F841002068E2
:101DC000C06820F400502168C860204600F0BEFAC8
:101DD0002068006920F4904021680861206840690B
:101DE00020F02A00216848612068C06840F4005053
:101DF0002168C86000206064202084F8410084F8D5
:101E000042000020606300BFC8E7000010B586B044
:101E10000446002002900390049005901E4920681B
:101E2000884236D100BF1D48806940F480401B497C
:101E300088610846806900F48040019000BF00BFBF
:101E400000BF0846806940F0040088610846806948
:101E500000F00400019000BF00BF4815029002206E
:101E600003900320059002A90D48FEF7A9FE4FF448
:101E70008060029000200390049002A90848FEF7B9
:101E80009FFE002211462520FFF7C8F82520FFF706
:101E9000B5F806B010BD0000003801400010024047
:101EA0000008014070472DE9F84F04460E461746DA
:101EB00099464FF0000A94F84100202850D106B10D
:101EC00017B90120BDE8F88F00206064212084F854
:101ED0004100FFF71BF88246A784E784A068B0F5AD
:101EE000805F04D1206910B90025B04602E0354674
:101EF0004FF000081EE05346002280212046CDF816
:101F0000009000F0F1FA20B1202084F84100032075
:101F1000D8E745B9B8F80000C0F308002168486068
:101F200008F1020803E02878216848606D1CE08C05
:101F3000401EE084E08C0028DDD153460022402181
:101F40002046CDF8009000F0CFFA20B1202084F890
:101F500041000320B6E7202084F841000020B1E7CB
:101F60000220AFE7704700BFFEE7000070B51A48D7
:101F700005684468280C0004B0F1005F05D02946CC
:101F800016A000F001FB012070BD1348844202D36B
:101F90001A48844205D9214619A000F0F5FA01201B
:101FA000F2E7172000F000FB252000F0FDFA0020EA
:101FB0004FF0E02108618861486172B6FEF716FDB6
:101FC00000BF85F3088800BF03481449086026460F
:101FD000B04700BFD8E700000040000853746163B9
:101FE0006B2041646472657373204572726F723A3C
:101FF000203078253038580A00000000000008081A
:102000004A756D7020416464726573732045727205
:102010006F723A203078253038580A0008ED00E019
:1020200008B500BF002000900A48006800680090D2
:10203000084800684068009000BF00BF6FF01000C3
:102040000449096808604FF4007203490148FFF72A
:102050003BFC08BD34000020A000002000B585B086
:102060000020019002900390049000BF1648806900
:1020700040F01000144988610846806900F01000A3
:10208000009000BF00BF00BF0846806940F0040018
:1020900088610846806900F00400009000BF00BF1E
:1020A000012202210948FEF72BFF022001900120A6
:1020B0000290002003900320049001A90348FEF73A
:1020C0007FFD05B000BD0000001002400008014087
:1020D00010B50B480B4908604FF4E130486000210F
:1020E00008488160C16001610C214161002181616A
:1020F000C161FFF74FFE08B1FEF7C3FA10BD000043
:10210000003801403400002000BFFEE700BFFEE7BA
:102110007047000008B508490968C9084FF47A7289
:10212000B1FBF2F14143009100BF00BF00994A1E8C
:1021300000920029F9D108BD0C000020704710B5AD
:10214000FEF7EAFE10BD00B58FB0282105A8FEF706
:1021500024F814216846FEF720F8012005900004B9
:102160000690002007900120099002200C90C103E6
:102170000D914FF4E0110E9105A8FFF7C5F808B1D5
:10218000FEF77FFA0F2000900220019000200290BD
:102190004FF4806003900020049002216846FEF70F
:1021A0008FFF08B1FEF76DFA0FB000BD704770B534
:1021B00005466C6A0020E085E0842046FFF776FC47
:1021C00070BD00BF00BF02680C3252E8002F22F43D
:1021D000907102680C3242E80013002BF3D100BF6B
:1021E00000BF00BF0268143252E8002F22F0010144
:1021F0000268143242E80013002BF3D100BF016BD8
:1022000001290ED100BF00BF02680C3252E8002F36
:1022100022F0100102680C3242E80013002BF3D1C7
:1022200000BF202180F8421000210163704710B5E3
:1022300004462068C06820F040002168C860202063
:1022400084F841002046FFF78DFE002010BDF8B550
:10225000044694F84200222875D1A068B0F5805F4A
:102260000CD1206950B90025A66A20684068C0F3E7
:1022700008003080A06A801CA06215E0A56A0026D4
:10228000A068B0F5805F03D0A06828B9206918B9AC
:1022900020684068287004E02068406800F07F00F3
:1022A0002870A06A401CA062E08D401E80B2E085CC
:1022B000002846D12068C06820F020002168C8604E
:1022C0002068C06820F480702168C8602068406978
:1022D00020F0010021684861202084F8420000209D
:1022E0006063206B012826D10020206300BF00BF5F
:1022F00021680C3151E8001F21F0100021680C31D9
:1023000041E80002002AF3D100BF2068006800F015
:10231000100010280AD100BF00200090206800683B
:10232000009020684068009000BF00BFA18D20464B
:10233000FFF704FB02E02046FFF7B4FD0020F8BDE4
:1023400001E00020FBE70220F9E7000070B5044639
:102350002168096921F44051E26811432268116142
:102360002269A1681143626941EA02052168C968CE
:1023700041F20C62914329432268D1602168496986
:1023800021F44071A2691143226851612D4A2168EC
:10239000914202D1FEF770FF01E0FEF75DFF00EB16
:1023A000C00101EB001162689200B1FBF2F100EB99
:1023B000C00202EB001263689B00B2FBF3F26423DD
:1023C000B2FBF3F202EBC20303EB0212A1EB8201B8
:1023D000322202EB01116422B1FBF2F101F0F001B3
:1023E00000EBC00202EB001263689B00B2FBF3F249
:1023F0006423B2FBF3F201EB021200EBC00101EB2C
:10240000001163689B00B1FBF3F100EBC00303EB29
:1024100000136668B600B3FBF6F36426B3FBF6F36D
:1024200003EBC30606EB0313A1EB8301322303EB9B
:1024300001116423B1FBF3F101F00F011144226893
:10244000916070BD0038014010B5034699629A85CD
:10245000DA8500205864222083F84200186928B1E8
:102460001868C06840F480701C68E06018684069B3
:1024700040F001001C6860611868C06840F02000EE
:102480001C68E060002010BD014691F84100212841
:1024900028D18868B0F5805F0BD1086948B90A6A0D
:1024A0001088C0F308000B685860086A801C086236
:1024B00005E00B6A581C086218780B685860C88CD5
:1024C000401E80B2C88458B90868C06820F08000F7
:1024D0000B68D8600868C06840F040000B68D8609E
:1024E000002070470220FCE72DE9F84304460D4622
:1024F00017469846089E31E0701C70B3FEF706FD43
:10250000A0EB0800B04200D816B90320BDE8F8835C
:102510002068C06800F00400F8B1802D1ED0402D66
:102520001CD020680068C0F3C000B0B100BF00201C
:10253000009020680068009020684068009000BF0C
:1025400000BF2046FFF73DFE0820606400BF00206A
:1025500084F8400000BF0120D8E7FFE7206800684A
:102560002840A84201D1012000E00020B842C3D099
:102570000020CBE710B50248FFF79AFA10BD000023
:102580003400002000BFFEE70FB4054B10B503A9CF
:10259000044A029800F076F810BC5DF814FB0000C5
:1025A000DD2A00082C000020002817DB00F01F02A5
:1025B000012191400A4A430942F8231000BF00BF9D
:1025C00000BFBFF34F8F00BF00BF00BF00BF00BF01
:1025D00000BFBFF36F8F00BF00BF00BF7047000098
:1025E00080E100E002480068C0F30220704700006C
:1025F0000CED00E010B5002804DB0A07130E054AB5
:10260000135406E00A07140E034A00F00F031B1FC1
:10261000D45410BD00E400E018ED00E000BF00BF9E
:1026200000BFBFF34F8F00BF00BF00BF0948006865
:1026300000F4E06008490843001D0649086000BF37
:1026400000BF00BFBFF34F8F00BF00BF00BF00BF80
:1026500000BFFDE70CED00E00000FA050048704700
:102660003000002002E008C8121F08C1002AFAD179
:1026700070477047002001E001C1121F002AFBD102
:10268000704700002DE9FF4F8DB00F46054600262C
:1026900006E025280BD0DDE90F1290476D1C761C53
:1026A00028780028F5D111B03046BDE8F08F00241D
:1026B000A246A1460122E94900E0044315F8013F82
:1026C000203B02FA03F00842F7D128782A2810D0DC
:1026D0006FF02F022878A0F13001092914D80AEBF5
:1026E0008A0102EB410144F0020400EB010A6D1C77
:1026F000F0E701CF5FEA000A03D544F40054CAF1C1
:10270000000A44F002046D1C28782E2817D115F811
:10271000010F44F004042A280ED06FF02F0228780D
:10272000A0F1300109290AD809EB890102EB410126
:1027300000EB01096D1CF2E757F8049B6D1C28782B
:102740006C280FD006DC4C2817D068280DD06A28DA
:1027500014D104E0742810D07A280FD10DE044F48D
:1027600000140AE044F4801401E044F44014697851
:10277000814202D104F580146D1C6D1C28786E28EE
:102780001ED00CDC632830D004DC00288BD0582805
:1027900011D19FE0642867D069280CD164E07328C8
:1027A0002DD004DC6F2872D0702804D194E07528F5
:1027B0006ED078286DD0DDE90F129047761C4BE182
:1027C000C4F30250022806D0032809D0042801CF00
:1027D00009D0066040E101CFF117C0E900613BE19B
:1027E00001CF068038E1067036E117F8040B8DF84A
:1027F000000000208DF80100EB46012003E057F8AF
:1028000004BB4FF0FF3061074FF0000102D40DE030
:1028100008F10101884649450FDA8045F8DB1BF8CD
:1028200008100029F4D108E008F10101884681422E
:10283000FADB1BF808100029F6D1DDE90F23AAEB1B
:1028400008008146214600F031F9304400EB0806CB
:1028500004E0DDE90F121BF8010B9047B8F1010805
:10286000F7D221464846F2E00A21C4F302524FF063
:10287000000B0891022A04D001CFC117032A09D006
:102880000AE0FF1D27F00707F7E8020108E02CE047
:102890001EE01FE000B2C117042A01D140B2C117E7
:1028A000021E71F1000206DA0023D0EB030063EB95
:1028B00001012D2202E0220504D52B228DF82420CF
:1028C000012203E0E20701D02022F7E7904653E01F
:1028D0000A210BE0102109E010214FF0000B44F019
:1028E00004044FF00809089103E008214FF0000BA1
:1028F0000891C4F30252022A04D001CF0021032A16
:1029000006D006E0FF1D27F00707F7E8020103E005
:1029100080B2042A00D1C0B24FF0000822072BD5A4
:102920002A78702A07D0DDF820C08CF0100C5CEA01
:102930000B0C05D00EE040228DF82420012208E087
:1029400050EA010306D030238DF824308DF825207D
:1029500002229046089B83F0080353EA0B030BD135
:1029600050EA010201D1620706D530228DF82420F9
:102970004FF00108A9F101092A78582A04D038A299
:102980000B9208AA0A920BE03AA2F9E75B46089A72
:10299000FDF72DFC0B9B9B5C0A9A521E0A9213704A
:1029A00050EA0102F2D10A98ADEB000000F1200BD1
:1029B000600702D524F4803401E04FF00109D945C5
:1029C00002DDA9EB0B0000E0002000EB0B0141440D
:1029D0000890AAEB010AE00306D4DDE90F232146A3
:1029E000504600F063F806444FF0000908E009A9DA
:1029F00011F80900DDE90F12904709F10109761C71
:102A0000C145F4DBE0030CD5DDE90F232146504638
:102A100000F04CF8064404E0DDE90F123020904746
:102A2000761C0899481E08900029F5DC08E00A98F1
:102A30000A990078491C0A91DDE90F129047761C2B
:102A4000BBF10001ABF1010BF1DC21465046DDE9A1
:102A50000F2300F019F806446D1C21E60928010037
:102A60003031323334353637383961626364656604
:102A700000000000303132333435363738394142C6
:102A800043444546000000002DE9F041044600257E
:102A90001E461746880404D405E039462020B04776
:102AA0006D1C641EF9D52846BDE8F0812DE9F04182
:102AB000044600251E469046C80301D5302700E095
:102AC0002027880404D505E041463846B0476D1CF0
:102AD000641EF9D52846BDE8F081000013B50C4608
:102AE0004FF47A73012269460248FFF7DCF9009837
:102AF0001CBD000034000020FEF71AFAFFF723FB8C
:102B0000FFF7ACFAFFF7E4FAFDF75EFC01E0FDF732
:102B100053FDFCE72DE9F041002423E0154800684F
:102B200015490844071934B914480078144909783C
:102B300041EA002505E0601E1049085C095D40EA95
:102B400001252A46002339460120FDF7C9FF064624
:102B50003EB1FDF7B5FF804641460AA0FFF714FDE0
:102B600004E0A41C0E4800888442D7D300BFBDE80F
:102B7000F08100001400002000400008A0000020A8
:102B800018000020466C617368204572726F7220D5
:102B9000436F64653A203078253038580A000000C9
:102BA000120000202DE9F041002422E014480068C2
:102BB000144908440619601C13490988884217D231
:102BC0001248015D0246601C105C41EA00252A465D
:102BD000002331460120FDF783FF07463FB1FDF793
:102BE0006FFF804641460AA0FFF7CEFC05E000BF1C
:102BF000A41C054800888442D8D300BFBDE8F081FA
:102C0000140000200040000812000020A000002056
:102C1000466C617368204572726F7220436F646501
:102C20003A203078253038580A00000002030405A5
:102C3000060708090A0B0C0D0E0F10100102000008
:102C4000000000000000010203040607080900005C
:102C5000000001020304004040404040404040402A
:102C6000414141414140404040404040404040405F
:102C7000404040404040400502020202020202027F
:102C80000202020202020220202020202020202016
:102C90002002020202020202909090909090101086
:102CA0001010101010101010101010101010101024
:102CB00010100202020202028888888888880808A8
:102CC0000808080808080808080808080808080884
:102CD0000808020202024000572C0008FC2C0008E1
:102CE000000000203400000064260008302D000899
:102CF00034000020AC06000074260008000000002C
:102D0000100000000100000000127A000000000026
:102D100000000000000000000000000000000000B3
:102D200000000000000000000000000000000000A3
:0400000508000131BD
:00000001FF
